S0140000446973706C61795F377365672E7372656365
S11300000C94B1000C94CE000C94CE000C94CE0051
S11300100C94CE000C94CE000C94CE000C94CE0024
S11300200C94CE000C94CE000C94CE000C94CE0014
S11300300C94CE000C94CE000C94CE000C94CE0004
S11300400C94CE000C94CE000C94CE000C94CE00F4
S11300500C94CE000C94CE000C94CE000C94CE00E4
S11300600C94CE000C94CE0000407A10F35A00A0F9
S1130070724E18090010A5D4E80000E8764817006D
S113008000E40B54020000CA9A3B000000E1F505AD
S1130090000080969800000040420F000000A086F7
S11300A001000000102700000000E8030000000029
S11300B06400000000000A000000000001000000CD
S11300C000002C76D888DC674F0823DFC1DFAE59E7
S11300D0E1B1B796E5E3E453C63AE651997696E87A
S11300E0E6C28426EB898C9B62ED407C6FFCEFBCFE
S11300F09C9F40F2BAA56FA5F490055A2AF75C9329
S11301006B6CF9676DC11BFCE0E40D47FEF520E65E
S1130110B500D0ED902E0300943577050080841E41
S1130120080000204E0A000000C80C333333330F9C
S1130130986E12831141EF8D2114893BE65516CF39
S1130140FEE6DB18D1844B381BF77C1D901DA4BB45
S1130150E424203284725E228100C9F124ECA1E5FA
S11301603D2711241FBECFEFD8E0DEBFCDBF11E085
S1130170A0E0B1E0E2E5F0E102C005900D92AE35F9
S1130180B107D9F721E0AEE5B1E001C01D92A13974
S1130190B207E1F70E94D4030C9427080C940000E2
S11301A01092630161E085E290E00E946E0388236F
S11301B031F0809163018E7F8093630105C080914B
S11301C063018160809363018091630190915F0179
S11301D09817D9F085E080935E011092630161E085
S11301E085E290E00E946E03882331F080916301E0
S11301F08E7F8093630105C0809163018160809349
S113020063018091630180935F011092630161E057
S113021085E290E00E946E03882331F080916301AF
S11302208E7F8093630105C0809163018160809318
S113023063019091630180915F0189130AC09091D9
S11302405E01992321F0915090935E01089580936B
S11302506301089540E061E08BE290E00E944B036B
S113026040E062E08BE290E00E944B0340E064E0F7
S11302708BE290E00E944B0340E068E08BE290E068
S11302800E944B0340E060E18BE290E00E944B034C
S113029040E060E28BE290E00E944B0340E060E4C7
S11302A08BE290E00E944B0340E060E88BE290E038
S11302B00E944B0340E061E088E290E00E944B031F
S11302C040E062E088E290E00E944B0340E064E09A
S11302D088E290E00E944B0340E068E088E290E00E
S11302E00E944B030895CF93DF93EC01DC010D9042
S11302F00020E9F7A81BB90BF9F020E030E090E00A
S113030050E080E0FE01E20FF31F20812E3211F451
S1130310442331F0FB01E50FF11D20835F5F01C031
S1130320892F9F5F292F30E02A173B0758F3882332
S113033021F0442331F001C050E08FEFFB0186A788
S113034004C0A250A81BFB01A6A75150FB0155A74E
S1130350DF91CF91089590ED980F9A3038F4E82FFB
S1130360F0E0E952FF4F80818BB908959FE9980F1F
S11303709A3138F4E82FF0E0E055FF4F80818BB9D3
S113038008959FEB980F9A3138F4E82FF0E0E0538A
S1130390FF4F80818BB90895803219F48FEF8BB9A8
S11303A008958D3219F48FEB8BB908958F3519F4B4
S11303B087EF8BB908958E3219F48FE78BB90895BE
S11303C08D3319F48EEB8BB908958A3211F48CE9CC
S11303D08BB908950F931F93CF93DF93EC01062FEE
S11303E08EE00E94A2038FE00E94A20380E10E949B
S11303F0A20381E10E94A2031DA580910001823025
S113040009F462C020F4813009F48AC0B4C0833096
S113041079F1843009F0AFC0002349F08091610183
S1130420FE01E80FF11D83810E94AB0107C0FE01AC
S1130430E10FF11D319780810E94AB018EA58F3FA2
S113044049F0811104C087E00E94A20303C087E041
S11304500E9473038DA5813021F484E08093000110
S113046003C083E08093000181E10E94730386C08E
S1130470002349F080916101FE01E80FF11D8281A2
S11304800E94AB0107C0FE01E10FF11D329780818C
S11304900E94AB018EA58F3F49F0813021F487E0A3
S11304A00E94A20303C087E00E9473038DA58230DB
S11304B021F484E08093000103C082E08093000172
S11304C080E10E9473035AC0002349F080916101C6
S11304D0FE01E80FF11D81810E94AB0107C0FE01FE
S11304E0E10FF11D339780810E94AB018EA58F3FF0
S11304F049F0823021F487E00E94A20303C087E020
S11305000E9473038DA5833021F484E0809300015D
S113051003C081E0809300018FE00E9473032EC02A
S1130520002349F080916101FE01E80FF11D8081F3
S11305300E94AB0107C0FE01E10FF11D34978081D9
S11305400E94AB018EA58F3F49F0833021F487E0F0
S11305500E94A20303C087E00E9473038DA5843028
S113056019F48093000103C084E0809300018EE0BD
S11305700E94730303C084E0809300010023D1F040
S1130580809160018F5F893C18F48093600112C0F0
S113059010926001209161012F5F422F50E0812F62
S11305A090E00397481759071CF42093610102C097
S11305B010926101DF91CF911F910F9108950F93D4
S11305C01F93CF93DF93CDB7DEB7AF970FB6F894F1
S11305D0DEBF0FBECDBF04E611E021E044E00E947F
S11305E0690540E0BE016F5F7F4FC8010E9473013F
S11305F060E0CE0101960E94EA01AF960FB6F8942E
S1130600DEBF0FBECDBFDF91CF911F910F91089533
S1130610CF93DF93CDB7DEB7AF970FB6F894DEBFB5
S11306200FBECDBF4AE064E671E00E94890540E058
S1130630BE016F5F7F4F84E691E00E94730160E02A
S1130640CE0101960E94EA01AF960FB6F894DEBF80
S11306500FBECDBFDF91CF910895CF93DF93CDB778
S1130660DEB7AF970FB6F894DEBF0FBECDBF41E043
S1130670BE016F5F7F4F0E94730161E0CE0101965E
S11306800E94EA01AF960FB6F894DEBF0FBECDBF4D
S1130690DF91CF910895411105C0FC018291682B2F
S11306A060830895413071F4FC012291362F309516
S11306B023232083FC012081622B608385B78F7EF6
S11306C085BF0895423049F4FC01229160952623A8
S11306D02083FC012081622B608308950297FC0132
S11306E0808186230895883068F44BB121E030E09E
S11306F0B90102C0660F771F8A95E2F7CB01842BFC
S11307008BB908958E3070F445B1885021E030E003
S1130710B90102C0660F771F8A95E2F7CB01842BDB
S113072085B90895853168F448B18E5021E030E0F0
S1130730B90102C0660F771F8A95E2F7CB01842BBB
S113074088B90895883070F44BB121E030E0B901E4
S113075002C0660F771F8A95E2F7CB018095842348
S11307608BB908958E3078F445B1885021E030E09B
S1130770B90102C0660F771F8A95E2F7CB01809515
S1130780842385B90895853170F448B18E5021E0F1
S113079030E0B90102C0660F771F8A95E2F7CB01FA
S11307A08095842388B90895CF93DF931F92CDB7A2
S11307B0DEB70E942A0141E061E085E290E00E94F8
S11307C04B0319820F2EFDECCF2EFCECDF2EF7EC41
S11307D0EF2EF2ECFF2EF02D09E11CEF0E94D00069
S11307E0809163018130B1F48981833011F41982DD
S11307F011C089818F5F8983C0920101D092020167
S1130800E0920301F09204011093060100930501A4
S1130810109262018981813041F120F0823009F423
S113082064C068C080910501909106010E9408038C
S1130830809162018431A9F41092620180910501D2
S1130840909106018F3027E2920734F40196909339
S11308500601809305014FC0109306010093050122
S11308604AC08F5F8093620146C06091010170911C
S1130870020180910301909104010E94DF028091A2
S11308806201843171F510926201809001019090AF
S11308900201A0900301B09004012AE939EF49E76D
S11308A054E4C501B4010E94EF0488238CF42DECB8
S11308B03CEC4CEC5DE3C501B4010E9483046093FD
S11308C0010170930201809303019093040113C00A
S11308D0C0920101D0920201E0920301F09204015E
S11308E00AC08F5F8093620106C081E391E00E9499
S11308F02D0301C019828FE19EE40197F1F700C036
S113090000006CCF5058BB27AA270E949A040C946D
S11309102F050E94210538F00E94280520F039F4A3
S11309209F3F19F426F40C941E050EF4E095E7FBA2
S11309300C941805E92F0E94400558F3BA17620772
S113094073078407950720F079F4A6F50C946205E3
S11309500EF4E0950B2EBA2FA02D0B01B9019001D6
S11309600C01CA01A0011124FF27591B99F0593F1A
S113097050F4503E68F11A16F040A22F232F342F62
S11309804427585FF3CF469537952795A795F040B0
S11309905395C9F77EF41F16BA0B620B730B840BC5
S11309A0BAF09150A1F0FF0FBB1F661F771F881F7D
S11309B0C2F70EC0BA0F621F731F841F48F48795D5
S11309C077956795B795F7959E3F08F0B0CF9395C7
S11309D0880F08F09927EE0F9795879508950E9440
S11309E0F40408F481E00895990F0008550FAA0B48
S11309F0E0E8FEEF16161706E807F907C0F012162E
S1130A001306E407F50798F0621B730B840B950B30
S1130A1039F40A2661F0232B242B252B21F4089585
S1130A200A2609F4A140A6958FEF811D811D089522
S1130A3097F99F6780E870E060E008959FEF80EC8D
S1130A40089500240A941616170618060906089530
S1130A5000240A9412161306140605060895092E96
S1130A600394000C11F4882352F0BB0F40F4BF2B05
S1130A7011F460FF04C06F5F7F4F8F4F9F4F089545
S1130A8057FD9058440F551F59F05F3F71F047953B
S1130A90880F97FB991F61F09F3F79F08795089520
S1130AA0121613061406551FF2CF4695F1DF08C03F
S1130AB0161617061806991FF1CF8695710561055C
S1130AC008940895E894BB2766277727CB0197F904
S1130AD00895EF920F931F93CF93DF93E80147FD9F
S1130AE002C034E001C034E1042E000C550B57FF62
S1130AF003C0519541955109E32E022F242FAE01D5
S1130B000E94AE05CE01DF91CF911F910F91EF901E
S1130B100895BB274A3031F4992322F4BDE290951D
S1130B2081959F4F0C949505BB27FB015527AA2758
S1130B30880F991FAA1FA41710F0A41B8395505166
S1130B40B9F7A05DAA3308F0A95DA193009779F7DE
S1130B50B111B1931192CB010C94E007A9E0B0E07C
S1130B60E4EBF5E00C94F6076A01122FB02E2BE3A8
S1130B70201720F0FF24F394F00E02C02CE3F22E91
S1130B800F2D27E0AE014F5F5F4F0E940807BC01A5
S1130B904981842F8970813031F0E1FC06C0E0FE88
S1130BA006C090E205C09DE203C09BE201C090E054
S1130BB05E2D507143FF3CC0911102C083E001C01F
S1130BC084E0811718F4212F281B01C020E0511163
S1130BD00BC0F601822F30E2882319F03193815043
S1130BE0FBCFC20ED11C20E0992329F0D6019C939F
S1130BF0F60131966F01C6010396E2FE0AC03EE497
S1130C00D6013C9341E411964C93119712963C9370
S1130C1006C03EE6F601308341E641833283FC019F
S1130C20322F40E2332309F442C041933150FACFCA
S1130C3042FF44C0911102C083E001C084E08117E7
S1130C4018F4212F281B01C020E051110BC0F6011C
S1130C50822F30E2882319F031938150FBCFC20EEA
S1130C60D11C20E0992329F0D6019C93F6013196FA
S1130C706F01C6010396E2FE0BC039E4D6013C9332
S1130C803EE411963C93119736E412963C9307C0C8
S1130C9039E6F60130833EE6318336E63283FC01E1
S1130CA0322F40E2332319F041933150FBCFFC0142
S1130CB0E20FF11D10828EEF9FEFA6C021E030E01D
S1130CC0911102C020E030E0161617061CF4FB0157
S1130CD0319602C0E1E0F0E02E0F3F1FBB2021F06F
S1130CE0EB2DF0E0319602C0E0E0F0E02E0F3F1F64
S1130CF0E12FF0E02E173F071CF4121B212F01C037
S1130D0020E08E2D887159F4F601822F30E2882379
S1130D1019F031938150FBCFC20ED11C20E09923EE
S1130D2029F0D6019C93F60131966F0151110BC045
S1130D30F601822F90E3882319F091938150FBCF21
S1130D40C20ED11C20E00F2D060F9A81342F307172
S1130D5044FF03C0913309F40150101624F4093000
S1130D6018F008E001C001E0AB0177FF02C040E0E9
S1130D7050E0FB01E41BF50BA1E0B0E0AC0FBD1F9C
S1130D80EA0FFB1F8EE2A82E4B01801A91080B2D4F
S1130D9010E01195019511094F3FBFEF5B0721F456
S1130DA0D601AC9211966D01641775072CF0841668
S1130DB0950614F4818101C080E3415051093196B4
S1130DC0D60111967D014017510724F0D6018C936A
S1130DD06701E2CF6417750739F4963320F495332D
S1130DE019F4311101C081E3F6018083F701822FE8
S1130DF090E2882319F091938150FBCFF701E20F21
S1130E00F11D108280E090E02996ECE00C94120829
S1130E10283008F027E03327DA01990F311D87FDC8
S1130E20916000966105710539F432602E5F3D933F
S1130E3030E32A95E1F708959F3F30F0803871053B
S1130E40610509F03C5F3C5F3D93913008F0806898
S1130E50911DDF93CF931F930F93FF92EF92192F5E
S1130E60987F9695E92F96959695E90FFF27EE536F
S1130E70FF4F99273327EE24FF24A701E7010590AC
S1130E800894079428F4360FE71EF81E491F511DD5
S1130E90660F771F881F991F0694A1F70590079482
S1130EA028F4E70EF81E491F561FC11D770F881F2F
S1130EB0991F661F0694A1F70590079428F4F80E6D
S1130EC0491F561FC71FD11D880F991F661F771F03
S1130ED00694A1F70590079420F4490F561FC71FE5
S1130EE0D81F990F661F771F881F0694A9F784914E
S1130EF01095177041F0D695C79557954795F79477
S1130F00E7941A95C1F7E8E6F0E068941590159116
S1130F1035916591959105907FE27395E118F10AF9
S1130F20430B560BC90BD009C0F7E10CF11E431F4C
S1130F30561FC91FD01D7EF4703311F48A95E6CF75
S1130F40E894015030F0080F0AF40027021708F45F
S1130F50202F2395022F7A3328F079E37D932A9565
S1130F60E9F710C07D932A9589F6069497956795BD
S1130F70379517951794E118F10A430B560BC90BD3
S1130F80D00998F023957E9173957A3308F070E335
S1130F907C932013B8F77E9170617D9330F0839534
S1130FA071E37D9370E32A95E1F71124EF90FF90AC
S1130FB00F911F91CF91DF91992787FD9095089507
S1130FC0DC01FC01672F71917723E1F7329704C0AC
S1130FD07C916D9370836291AE17BF07C8F3089537
S1130FE02F923F924F925F926F927F928F929F9235
S1130FF0AF92BF92CF92DF92EF92FF920F931F9323
S1131000CF93DF93CDB7DEB7CA1BDB0B0FB6F894D3
S1131010DEBF0FBECDBF09942A88398848885F8413
S11310206E847D848C849B84AA84B984C884DF8084
S1131030EE80FD800C811B81AA81B981CE0FD11D68
S11310400FB6F894DEBF0FBECDBFED010895F8943E
S1051050FFCFCC
S113105204CDCCC7C219FCC0F9A4B0999282F8801D
S1131062988883C6A1868EC28BF9E18AC7EAC8A38F
S11310728C98AF9287C1E3D58991A4FFBFF77FBE55
S11310829C303132333435363738395F4142434448
S113109245464748494A4B4C4D4E4F505152535482
S11110A255565758595A2D2E3D2A202020000D
S9030000FC
